{
  "contractName": "Bam",
  "abi": [
    {
      "inputs": [],
      "payable": false,
      "stateMutability": "nonpayable",
      "type": "constructor"
    },
    {
      "anonymous": false,
      "inputs": [
        {
          "indexed": false,
          "internalType": "string",
          "name": "fileId",
          "type": "string"
        },
        {
          "indexed": false,
          "internalType": "string",
          "name": "fileHash",
          "type": "string"
        },
        {
          "indexed": false,
          "internalType": "uint256",
          "name": "uploadTime",
          "type": "uint256"
        }
      ],
      "name": "PrescriptionUpload",
      "type": "event"
    },
    {
      "constant": true,
      "inputs": [],
      "name": "name",
      "outputs": [
        {
          "internalType": "string",
          "name": "",
          "type": "string"
        }
      ],
      "payable": false,
      "stateMutability": "view",
      "type": "function"
    },
    {
      "constant": true,
      "inputs": [
        {
          "internalType": "address",
          "name": "",
          "type": "address"
        },
        {
          "internalType": "uint256",
          "name": "",
          "type": "uint256"
        }
      ],
      "name": "prescriptions",
      "outputs": [
        {
          "internalType": "string",
          "name": "fileId",
          "type": "string"
        },
        {
          "internalType": "string",
          "name": "fileHash",
          "type": "string"
        },
        {
          "internalType": "uint256",
          "name": "uploadTime",
          "type": "uint256"
        }
      ],
      "payable": false,
      "stateMutability": "view",
      "type": "function"
    },
    {
      "constant": true,
      "inputs": [
        {
          "internalType": "address",
          "name": "",
          "type": "address"
        }
      ],
      "name": "users",
      "outputs": [
        {
          "internalType": "string",
          "name": "name",
          "type": "string"
        },
        {
          "internalType": "string",
          "name": "email",
          "type": "string"
        },
        {
          "internalType": "string",
          "name": "utype",
          "type": "string"
        },
        {
          "internalType": "string",
          "name": "licenseCode",
          "type": "string"
        },
        {
          "internalType": "uint256",
          "name": "age",
          "type": "uint256"
        },
        {
          "internalType": "string",
          "name": "specialisation",
          "type": "string"
        }
      ],
      "payable": false,
      "stateMutability": "view",
      "type": "function"
    },
    {
      "constant": false,
      "inputs": [
        {
          "internalType": "address payable",
          "name": "_recipient",
          "type": "address"
        },
        {
          "internalType": "uint256",
          "name": "amount",
          "type": "uint256"
        }
      ],
      "name": "pay",
      "outputs": [],
      "payable": false,
      "stateMutability": "nonpayable",
      "type": "function"
    },
    {
      "constant": false,
      "inputs": [
        {
          "internalType": "string",
          "name": "_name",
          "type": "string"
        },
        {
          "internalType": "string",
          "name": "_email",
          "type": "string"
        },
        {
          "internalType": "string",
          "name": "_type",
          "type": "string"
        },
        {
          "internalType": "string",
          "name": "_licenseCode",
          "type": "string"
        },
        {
          "internalType": "uint256",
          "name": "_age",
          "type": "uint256"
        },
        {
          "internalType": "string",
          "name": "_specialisation",
          "type": "string"
        }
      ],
      "name": "addUser",
      "outputs": [],
      "payable": false,
      "stateMutability": "nonpayable",
      "type": "function"
    },
    {
      "constant": true,
      "inputs": [],
      "name": "getUser",
      "outputs": [
        {
          "internalType": "string",
          "name": "",
          "type": "string"
        },
        {
          "internalType": "string",
          "name": "",
          "type": "string"
        },
        {
          "internalType": "string",
          "name": "",
          "type": "string"
        },
        {
          "internalType": "string",
          "name": "",
          "type": "string"
        },
        {
          "internalType": "uint256",
          "name": "",
          "type": "uint256"
        },
        {
          "internalType": "string",
          "name": "",
          "type": "string"
        }
      ],
      "payable": false,
      "stateMutability": "view",
      "type": "function"
    },
    {
      "constant": true,
      "inputs": [
        {
          "internalType": "address",
          "name": "_address",
          "type": "address"
        }
      ],
      "name": "getUserof",
      "outputs": [
        {
          "internalType": "string",
          "name": "",
          "type": "string"
        },
        {
          "internalType": "string",
          "name": "",
          "type": "string"
        },
        {
          "internalType": "string",
          "name": "",
          "type": "string"
        },
        {
          "internalType": "string",
          "name": "",
          "type": "string"
        },
        {
          "internalType": "uint256",
          "name": "",
          "type": "uint256"
        },
        {
          "internalType": "string",
          "name": "",
          "type": "string"
        }
      ],
      "payable": false,
      "stateMutability": "view",
      "type": "function"
    },
    {
      "constant": false,
      "inputs": [
        {
          "internalType": "string",
          "name": "_fileId",
          "type": "string"
        },
        {
          "internalType": "string",
          "name": "_fileHash",
          "type": "string"
        }
      ],
      "name": "UploadPrescriptions",
      "outputs": [],
      "payable": false,
      "stateMutability": "nonpayable",
      "type": "function"
    },
    {
      "constant": true,
      "inputs": [],
      "name": "getCount",
      "outputs": [
        {
          "internalType": "uint256",
          "name": "",
          "type": "uint256"
        }
      ],
      "payable": false,
      "stateMutability": "view",
      "type": "function"
    },
    {
      "constant": true,
      "inputs": [],
      "name": "getCountUsers",
      "outputs": [
        {
          "internalType": "uint256",
          "name": "",
          "type": "uint256"
        }
      ],
      "payable": false,
      "stateMutability": "view",
      "type": "function"
    },
    {
      "constant": true,
      "inputs": [
        {
          "internalType": "uint256",
          "name": "_index",
          "type": "uint256"
        }
      ],
      "name": "getFilesofUser",
      "outputs": [
        {
          "internalType": "string",
          "name": "",
          "type": "string"
        },
        {
          "internalType": "string",
          "name": "",
          "type": "string"
        },
        {
          "internalType": "uint256",
          "name": "",
          "type": "uint256"
        }
      ],
      "payable": false,
      "stateMutability": "view",
      "type": "function"
    },
    {
      "constant": false,
      "inputs": [
        {
          "internalType": "string",
          "name": "_fileId",
          "type": "string"
        }
      ],
      "name": "removeHash",
      "outputs": [],
      "payable": false,
      "stateMutability": "nonpayable",
      "type": "function"
    }
  ],
  "bytecode": "0x60806040526040518060400160405280600381526020017f42616d0000000000000000000000000000000000000000000000000000000000815250600090805190602001906200005192919062000066565b503480156200005f57600080fd5b5062000115565b828054600181600116156101000203166002900490600052602060002090601f016020900481019282601f10620000a957805160ff1916838001178555620000da565b82800160010185558215620000da579182015b82811115620000d9578251825591602001919060010190620000bc565b5b509050620000e99190620000ed565b5090565b6200011291905b808211156200010e576000816000905550600101620000f4565b5090565b90565b61270c80620001256000396000f3fe608060405234801561001057600080fd5b50600436106100b45760003560e01c8063a4b6e24e11610071578063a4b6e24e14610894578063a87430ba146109ae578063a87d942c14610c22578063c407687614610c40578063cd006f1e14610c8e578063fa59d19914610faf576100b4565b806306fdde03146100b95780632ef4c5671461013c5780633f6b21c21461015a57806344af994a146102ac5780636414805614610520578063832880e71461065a575b600080fd5b6100c161106a565b6040518080602001828103825283818151815260200191508051906020019080838360005b838110156101015780820151818401526020810190506100e6565b50505050905090810190601f16801561012e5780820380516001836020036101000a031916815260200191505b509250505060405180910390f35b610144611108565b6040518082815260200191505060405180910390f35b6102aa6004803603604081101561017057600080fd5b810190808035906020019064010000000081111561018d57600080fd5b82018360208201111561019f57600080fd5b803590602001918460018302840111640100000000831117156101c157600080fd5b91908080601f016020809104026020016040519081016040528093929190818152602001838380828437600081840152601f19601f8201169050808301925050505050505091929192908035906020019064010000000081111561022457600080fd5b82018360208201111561023657600080fd5b8035906020019184600183028401116401000000008311171561025857600080fd5b91908080601f016020809104026020016040519081016040528093929190818152602001838380828437600081840152601f19601f820116905080830192505050505050509192919290505050611115565b005b6102ee600480360360208110156102c257600080fd5b81019080803573ffffffffffffffffffffffffffffffffffffffff16906020019092919050505061134c565b60405180806020018060200180602001806020018781526020018060200186810386528c818151815260200191508051906020019080838360005b83811015610344578082015181840152602081019050610329565b50505050905090810190601f1680156103715780820380516001836020036101000a031916815260200191505b5086810385528b818151815260200191508051906020019080838360005b838110156103aa57808201518184015260208101905061038f565b50505050905090810190601f1680156103d75780820380516001836020036101000a031916815260200191505b5086810384528a818151815260200191508051906020019080838360005b838110156104105780820151818401526020810190506103f5565b50505050905090810190601f16801561043d5780820380516001836020036101000a031916815260200191505b50868103835289818151815260200191508051906020019080838360005b8381101561047657808201518184015260208101905061045b565b50505050905090810190601f1680156104a35780820380516001836020036101000a031916815260200191505b50868103825287818151815260200191508051906020019080838360005b838110156104dc5780820151818401526020810190506104c1565b50505050905090810190601f1680156105095780820380516001836020036101000a031916815260200191505b509b50505050505050505050505060405180910390f35b61056c6004803603604081101561053657600080fd5b81019080803573ffffffffffffffffffffffffffffffffffffffff16906020019092919080359060200190929190505050611721565b604051808060200180602001848152602001838103835286818151815260200191508051906020019080838360005b838110156105b657808201518184015260208101905061059b565b50505050905090810190601f1680156105e35780820380516001836020036101000a031916815260200191505b50838103825285818151815260200191508051906020019080838360005b8381101561061c578082015181840152602081019050610601565b50505050905090810190601f1680156106495780820380516001836020036101000a031916815260200191505b509550505050505060405180910390f35b610662611895565b60405180806020018060200180602001806020018781526020018060200186810386528c818151815260200191508051906020019080838360005b838110156106b857808201518184015260208101905061069d565b50505050905090810190601f1680156106e55780820380516001836020036101000a031916815260200191505b5086810385528b818151815260200191508051906020019080838360005b8381101561071e578082015181840152602081019050610703565b50505050905090810190601f16801561074b5780820380516001836020036101000a031916815260200191505b5086810384528a818151815260200191508051906020019080838360005b83811015610784578082015181840152602081019050610769565b50505050905090810190601f1680156107b15780820380516001836020036101000a031916815260200191505b50868103835289818151815260200191508051906020019080838360005b838110156107ea5780820151818401526020810190506107cf565b50505050905090810190601f1680156108175780820380516001836020036101000a031916815260200191505b50868103825287818151815260200191508051906020019080838360005b83811015610850578082015181840152602081019050610835565b50505050905090810190601f16801561087d5780820380516001836020036101000a031916815260200191505b509b50505050505050505050505060405180910390f35b6108c0600480360360208110156108aa57600080fd5b8101908080359060200190929190505050611c69565b604051808060200180602001848152602001838103835286818151815260200191508051906020019080838360005b8381101561090a5780820151818401526020810190506108ef565b50505050905090810190601f1680156109375780820380516001836020036101000a031916815260200191505b50838103825285818151815260200191508051906020019080838360005b83811015610970578082015181840152602081019050610955565b50505050905090810190601f16801561099d5780820380516001836020036101000a031916815260200191505b509550505050505060405180910390f35b6109f0600480360360208110156109c457600080fd5b81019080803573ffffffffffffffffffffffffffffffffffffffff169060200190929190505050611e59565b60405180806020018060200180602001806020018781526020018060200186810386528c818151815260200191508051906020019080838360005b83811015610a46578082015181840152602081019050610a2b565b50505050905090810190601f168015610a735780820380516001836020036101000a031916815260200191505b5086810385528b818151815260200191508051906020019080838360005b83811015610aac578082015181840152602081019050610a91565b50505050905090810190601f168015610ad95780820380516001836020036101000a031916815260200191505b5086810384528a818151815260200191508051906020019080838360005b83811015610b12578082015181840152602081019050610af7565b50505050905090810190601f168015610b3f5780820380516001836020036101000a031916815260200191505b50868103835289818151815260200191508051906020019080838360005b83811015610b78578082015181840152602081019050610b5d565b50505050905090810190601f168015610ba55780820380516001836020036101000a031916815260200191505b50868103825287818151815260200191508051906020019080838360005b83811015610bde578082015181840152602081019050610bc3565b50505050905090810190601f168015610c0b5780820380516001836020036101000a031916815260200191505b509b50505050505050505050505060405180910390f35b610c2a61218d565b6040518082815260200191505060405180910390f35b610c8c60048036036040811015610c5657600080fd5b81019080803573ffffffffffffffffffffffffffffffffffffffff169060200190929190803590602001909291905050506121d7565b005b610fad600480360360c0811015610ca457600080fd5b8101908080359060200190640100000000811115610cc157600080fd5b820183602082011115610cd357600080fd5b80359060200191846001830284011164010000000083111715610cf557600080fd5b91908080601f016020809104026020016040519081016040528093929190818152602001838380828437600081840152601f19601f82011690508083019250505050505050919291929080359060200190640100000000811115610d5857600080fd5b820183602082011115610d6a57600080fd5b80359060200191846001830284011164010000000083111715610d8c57600080fd5b91908080601f016020809104026020016040519081016040528093929190818152602001838380828437600081840152601f19601f82011690508083019250505050505050919291929080359060200190640100000000811115610def57600080fd5b820183602082011115610e0157600080fd5b80359060200191846001830284011164010000000083111715610e2357600080fd5b91908080601f016020809104026020016040519081016040528093929190818152602001838380828437600081840152601f19601f82011690508083019250505050505050919291929080359060200190640100000000811115610e8657600080fd5b820183602082011115610e9857600080fd5b80359060200191846001830284011164010000000083111715610eba57600080fd5b91908080601f016020809104026020016040519081016040528093929190818152602001838380828437600081840152601f19601f8201169050808301925050505050505091929192908035906020019092919080359060200190640100000000811115610f2757600080fd5b820183602082011115610f3957600080fd5b80359060200191846001830284011164010000000083111715610f5b57600080fd5b91908080601f016020809104026020016040519081016040528093929190818152602001838380828437600081840152601f19601f820116905080830192505050505050509192919290505050612222565b005b61106860048036036020811015610fc557600080fd5b8101908080359060200190640100000000811115610fe257600080fd5b820183602082011115610ff457600080fd5b8035906020019184600183028401116401000000008311171561101657600080fd5b91908080601f016020809104026020016040519081016040528093929190818152602001838380828437600081840152601f19601f82011690508083019250505050505050919291929050505061239a565b005b60008054600181600116156101000203166002900480601f0160208091040260200160405190810160405280929190818152602001828054600181600116156101000203166002900480156111005780601f106110d557610100808354040283529160200191611100565b820191906000526020600020905b8154815290600101906020018083116110e357829003601f168201915b505050505081565b6000600180549050905090565b600081511161112357600080fd5b600082511161113157600080fd5b600073ffffffffffffffffffffffffffffffffffffffff163373ffffffffffffffffffffffffffffffffffffffff16141561116b57600080fd5b600260003373ffffffffffffffffffffffffffffffffffffffff1673ffffffffffffffffffffffffffffffffffffffff16815260200190815260200160002060405180606001604052808481526020018381526020014281525090806001815401808255809150509060018203906000526020600020906003020160009091929091909150600082015181600001908051906020019061120c929190612593565b506020820151816001019080519060200190611229929190612593565b50604082015181600201555050507f5c55ee45db7d236e04827bfe8be22efd57984ecd486cae5ad53911b85cd22fcc828242604051808060200180602001848152602001838103835286818151815260200191508051906020019080838360005b838110156112a557808201518184015260208101905061128a565b50505050905090810190601f1680156112d25780820380516001836020036101000a031916815260200191505b50838103825285818151815260200191508051906020019080838360005b8381101561130b5780820151818401526020810190506112f0565b50505050905090810190601f1680156113385780820380516001836020036101000a031916815260200191505b509550505050505060405180910390a15050565b6060806060806000606061135e612613565b600360008973ffffffffffffffffffffffffffffffffffffffff1673ffffffffffffffffffffffffffffffffffffffff1681526020019081526020016000206040518060c0016040529081600082018054600181600116156101000203166002900480601f0160208091040260200160405190810160405280929190818152602001828054600181600116156101000203166002900480156114415780601f1061141657610100808354040283529160200191611441565b820191906000526020600020905b81548152906001019060200180831161142457829003601f168201915b50505050508152602001600182018054600181600116156101000203166002900480601f0160208091040260200160405190810160405280929190818152602001828054600181600116156101000203166002900480156114e35780601f106114b8576101008083540402835291602001916114e3565b820191906000526020600020905b8154815290600101906020018083116114c657829003601f168201915b50505050508152602001600282018054600181600116156101000203166002900480601f0160208091040260200160405190810160405280929190818152602001828054600181600116156101000203166002900480156115855780601f1061155a57610100808354040283529160200191611585565b820191906000526020600020905b81548152906001019060200180831161156857829003601f168201915b50505050508152602001600382018054600181600116156101000203166002900480601f0160208091040260200160405190810160405280929190818152602001828054600181600116156101000203166002900480156116275780601f106115fc57610100808354040283529160200191611627565b820191906000526020600020905b81548152906001019060200180831161160a57829003601f168201915b5050505050815260200160048201548152602001600582018054600181600116156101000203166002900480601f0160208091040260200160405190810160405280929190818152602001828054600181600116156101000203166002900480156116d35780601f106116a8576101008083540402835291602001916116d3565b820191906000526020600020905b8154815290600101906020018083116116b657829003601f168201915b5050505050815250509050806000015181602001518260400151836060015184608001518560a001518595508494508393508292508090509650965096509650965096505091939550919395565b6002602052816000526040600020818154811061173a57fe5b906000526020600020906003020160009150915050806000018054600181600116156101000203166002900480601f0160208091040260200160405190810160405280929190818152602001828054600181600116156101000203166002900480156117e75780601f106117bc576101008083540402835291602001916117e7565b820191906000526020600020905b8154815290600101906020018083116117ca57829003601f168201915b505050505090806001018054600181600116156101000203166002900480601f0160208091040260200160405190810160405280929190818152602001828054600181600116156101000203166002900480156118855780601f1061185a57610100808354040283529160200191611885565b820191906000526020600020905b81548152906001019060200180831161186857829003601f168201915b5050505050908060020154905083565b606080606080600060606118a7612613565b600360003373ffffffffffffffffffffffffffffffffffffffff1673ffffffffffffffffffffffffffffffffffffffff1681526020019081526020016000206040518060c0016040529081600082018054600181600116156101000203166002900480601f01602080910402602001604051908101604052809291908181526020018280546001816001161561010002031660029004801561198a5780601f1061195f5761010080835404028352916020019161198a565b820191906000526020600020905b81548152906001019060200180831161196d57829003601f168201915b50505050508152602001600182018054600181600116156101000203166002900480601f016020809104026020016040519081016040528092919081815260200182805460018160011615610100020316600290048015611a2c5780601f10611a0157610100808354040283529160200191611a2c565b820191906000526020600020905b815481529060010190602001808311611a0f57829003601f168201915b50505050508152602001600282018054600181600116156101000203166002900480601f016020809104026020016040519081016040528092919081815260200182805460018160011615610100020316600290048015611ace5780601f10611aa357610100808354040283529160200191611ace565b820191906000526020600020905b815481529060010190602001808311611ab157829003601f168201915b50505050508152602001600382018054600181600116156101000203166002900480601f016020809104026020016040519081016040528092919081815260200182805460018160011615610100020316600290048015611b705780601f10611b4557610100808354040283529160200191611b70565b820191906000526020600020905b815481529060010190602001808311611b5357829003601f168201915b5050505050815260200160048201548152602001600582018054600181600116156101000203166002900480601f016020809104026020016040519081016040528092919081815260200182805460018160011615610100020316600290048015611c1c5780601f10611bf157610100808354040283529160200191611c1c565b820191906000526020600020905b815481529060010190602001808311611bff57829003601f168201915b5050505050815250509050806000015181602001518260400151836060015184608001518560a0015185955084945083935082925080905096509650965096509650965050909192939495565b606080600080841015611c7b57600080fd5b611c83612649565b600260003373ffffffffffffffffffffffffffffffffffffffff1673ffffffffffffffffffffffffffffffffffffffff1681526020019081526020016000208581548110611ccd57fe5b9060005260206000209060030201604051806060016040529081600082018054600181600116156101000203166002900480601f016020809104026020016040519081016040528092919081815260200182805460018160011615610100020316600290048015611d7f5780601f10611d5457610100808354040283529160200191611d7f565b820191906000526020600020905b815481529060010190602001808311611d6257829003601f168201915b50505050508152602001600182018054600181600116156101000203166002900480601f016020809104026020016040519081016040528092919081815260200182805460018160011615610100020316600290048015611e215780601f10611df657610100808354040283529160200191611e21565b820191906000526020600020905b815481529060010190602001808311611e0457829003601f168201915b505050505081526020016002820154815250509050806000015181602001518260400151829250819150935093509350509193909250565b6003602052806000526040600020600091509050806000018054600181600116156101000203166002900480601f016020809104026020016040519081016040528092919081815260200182805460018160011615610100020316600290048015611f055780601f10611eda57610100808354040283529160200191611f05565b820191906000526020600020905b815481529060010190602001808311611ee857829003601f168201915b505050505090806001018054600181600116156101000203166002900480601f016020809104026020016040519081016040528092919081815260200182805460018160011615610100020316600290048015611fa35780601f10611f7857610100808354040283529160200191611fa3565b820191906000526020600020905b815481529060010190602001808311611f8657829003601f168201915b505050505090806002018054600181600116156101000203166002900480601f0160208091040260200160405190810160405280929190818152602001828054600181600116156101000203166002900480156120415780601f1061201657610100808354040283529160200191612041565b820191906000526020600020905b81548152906001019060200180831161202457829003601f168201915b505050505090806003018054600181600116156101000203166002900480601f0160208091040260200160405190810160405280929190818152602001828054600181600116156101000203166002900480156120df5780601f106120b4576101008083540402835291602001916120df565b820191906000526020600020905b8154815290600101906020018083116120c257829003601f168201915b505050505090806004015490806005018054600181600116156101000203166002900480601f0160208091040260200160405190810160405280929190818152602001828054600181600116156101000203166002900480156121835780601f1061215857610100808354040283529160200191612183565b820191906000526020600020905b81548152906001019060200180831161216657829003601f168201915b5050505050905086565b6000600260003373ffffffffffffffffffffffffffffffffffffffff1673ffffffffffffffffffffffffffffffffffffffff16815260200190815260200160002080549050905090565b8173ffffffffffffffffffffffffffffffffffffffff166108fc829081150290604051600060405180830381858888f1935050505015801561221d573d6000803e3d6000fd5b505050565b60013390806001815401808255809150509060018203906000526020600020016000909192909190916101000a81548173ffffffffffffffffffffffffffffffffffffffff021916908373ffffffffffffffffffffffffffffffffffffffff160217905550506040518060c0016040528087815260200186815260200185815260200184815260200183815260200182815250600360003373ffffffffffffffffffffffffffffffffffffffff1673ffffffffffffffffffffffffffffffffffffffff1681526020019081526020016000206000820151816000019080519060200190612310929190612593565b50602082015181600101908051906020019061232d929190612593565b50604082015181600201908051906020019061234a929190612593565b506060820151816003019080519060200190612367929190612593565b506080820151816004015560a082015181600501908051906020019061238e929190612593565b50905050505050505050565b6000600260003373ffffffffffffffffffffffffffffffffffffffff1673ffffffffffffffffffffffffffffffffffffffff168152602001908152602001600020905060008090505b818054905081101561258e57826040516020018082805190602001908083835b602083106124265780518252602082019150602081019050602083039250612403565b6001836020036101000a0380198251168184511680821785525050505050509050019150506040516020818303038152906040528051906020012082828154811061246d57fe5b906000526020600020906003020160000160405160200180828054600181600116156101000203166002900480156124dc5780601f106124ba5761010080835404028352918201916124dc565b820191906000526020600020905b8154815290600101906020018083116124c8575b505091505060405160208183030381529060405280519060200120141561258157600260003373ffffffffffffffffffffffffffffffffffffffff1673ffffffffffffffffffffffffffffffffffffffff168152602001908152602001600020818154811061254757fe5b906000526020600020906003020160008082016000612566919061266a565b600182016000612576919061266a565b600282016000905550505b80806001019150506123e3565b505050565b828054600181600116156101000203166002900490600052602060002090601f016020900481019282601f106125d457805160ff1916838001178555612602565b82800160010185558215612602579182015b828111156126015782518255916020019190600101906125e6565b5b50905061260f91906126b2565b5090565b6040518060c001604052806060815260200160608152602001606081526020016060815260200160008152602001606081525090565b60405180606001604052806060815260200160608152602001600081525090565b50805460018160011615610100020316600290046000825580601f1061269057506126af565b601f0160209004906000526020600020908101906126ae91906126b2565b5b50565b6126d491905b808211156126d05760008160009055506001016126b8565b5090565b9056fea265627a7a72315820c2370cba0da5c66cfa06a0b1e4434219b7495eb19de6bc99c1e567bf36f3c83b64736f6c63430005100032",
  "source": "pragma solidity >=0.4.21 <0.7.0;\r\n\r\ncontract Bam{\r\n    \r\n    string public name = 'Bam';\r\n    \r\n    \r\n    struct Prescription {\r\n        string fileId;\r\n        string fileHash;\r\n        uint uploadTime;\r\n    }\r\n    \r\n\r\n    struct User{\r\n        string name;\r\n        string email;\r\n        string utype;\r\n        string licenseCode;\r\n        uint age;\r\n        string specialisation;\r\n    }\r\n\r\n    address[] userAddress;\r\n\r\n    \r\n    mapping(address => Prescription[]) public prescriptions;\r\n    mapping(address => User) public users;\r\n    \r\n     event PrescriptionUpload(\r\n        string fileId,\r\n        string fileHash,\r\n        uint uploadTime\r\n  );\r\n  \r\n  constructor() public {\r\n  }\r\n\r\n  function pay(address payable _recipient,uint amount) external {\r\n    _recipient.transfer(amount);\r\n  }\r\n  function addUser(string memory _name,string memory _email,string memory _type,string memory _licenseCode,uint _age,string memory _specialisation)public{\r\n\r\n      userAddress.push(msg.sender);\r\n\r\n      users[msg.sender] = User(_name,_email,_type,_licenseCode,_age,_specialisation);\r\n      \r\n  }\r\n\r\n  function getUser() public view returns(string memory,string memory,string memory,string memory,uint,string memory){\r\n\r\n      User memory usr = users[msg.sender];\r\n\r\n      return (usr.name,usr.email,usr.utype,usr.licenseCode,usr.age,usr.specialisation);\r\n\r\n  }\r\n\r\n  function getUserof(address _address) view public returns(string memory,string memory,string memory,string memory,uint,string memory){\r\n      User memory usr = users[_address];\r\n\r\n      return (usr.name,usr.email,usr.utype,usr.licenseCode,usr.age,usr.specialisation);\r\n  }\r\n    \r\n  function UploadPrescriptions(string memory _fileId,string memory _fileHash) public{\r\n\r\n    require(bytes(_fileHash).length > 0);\r\n    require(bytes(_fileId).length > 0);\r\n\r\n    require(msg.sender!=address(0));\r\n\r\n    \r\n    prescriptions[msg.sender].push(Prescription(_fileId,_fileHash, now));\r\n\r\n\r\n    emit PrescriptionUpload(_fileId,_fileHash,now);\r\n\r\n  }\r\n  \r\n  function getCount() public view returns(uint){\r\n      \r\n    return prescriptions[msg.sender].length;\r\n  }\r\n    function getCountUsers() public view returns(uint){\r\n      \r\n    return userAddress.length;\r\n  }\r\n  \r\n  function getFilesofUser(uint _index) public view returns(string memory,string memory,uint) {\r\n      \r\n      \r\n      require(_index>=0);\r\n      \r\n      Prescription memory file = prescriptions[msg.sender][_index];\r\n      \r\n      return (file.fileId,file.fileHash,file.uploadTime);\r\n    \r\n  }\r\n\r\n    function removeHash(string memory _fileId) public {\r\n      \r\n         Prescription[] storage f = prescriptions[msg.sender];\r\n  \r\n         for (uint i = 0; i < f.length; i++) {\r\n             if (keccak256(abi.encodePacked(f[i].fileId)) == keccak256(abi.encodePacked(_fileId))) {\r\n              \r\n               delete prescriptions[msg.sender][i];\r\n                 \r\n             }\r\n             \r\n         }\r\n  }\r\n    \r\n}",
  "sourcePath": "E:/Development/bam/contracts/Bam.sol",
  "compiler": {
    "name": "solc",
    "version": "0.5.16+commit.9c3226ce.Emscripten.clang"
  },
  "schemaVersion": "3.3.2",
  "updatedAt": "2020-11-25T18:49:44.621Z",
  "networkType": "ethereum",
  "devdoc": {
    "methods": {}
  },
  "userdoc": {
    "methods": {}
  }
}